:100000000A128A11FC2F00308A000408840A820731
:100010000034283445346D346234653454347234D9
:100020006F346E3469346334583429343A342034AC
:1000300045346E3474346534723420347434683426
:10004000653420346C3465347434743465347234FB
:100050007334203469346E3420346B34653479342D
:1000600062346F346134723464340A340D340D34C4
:0200700000345A
:100F3600831203138C1EA02FA12F9B2F8C121A082D
:100F46000800F00070088312031399000C1EAC2FE2
:100F5600AD2FA92F0C12080020308316031398001A
:100F660090308312031398000C30831603139900F4
:100F7600831203138C120C12080083160313071333
:100F860087170A128A11AF270A128A1101300A122C
:100F96008A11DD270A128A110A128A119B270A1260
:100FA6008A110A128A11A4270A128A11CF2F0A124D
:100FB6008A110028F200EF2F720884000A128A11A3
:100FC60003200A128A110A128A11A4270A128A1108
:100FD6000130F1007108F207720884000A128A11C2
:100FE60003200A128A11003A031DFA2FFB2FDF2F66
:0A0FF600080083010A128A11C02FBF
:02400E00BA3FB7
:00000001FF
